{
  "_format": "hh-sol-artifact-1",
  "contractName": "StudentStarage",
  "sourceName": "contracts/StudentStarage.sol",
  "abi": [
    {
      "inputs": [],
      "name": "age",
      "outputs": [
        {
          "internalType": "uint256",
          "name": "",
          "type": "uint256"
        }
      ],
      "stateMutability": "view",
      "type": "function"
    },
    {
      "inputs": [],
      "name": "get",
      "outputs": [
        {
          "internalType": "uint256",
          "name": "",
          "type": "uint256"
        },
        {
          "internalType": "string",
          "name": "",
          "type": "string"
        }
      ],
      "stateMutability": "view",
      "type": "function"
    },
    {
      "inputs": [],
      "name": "name",
      "outputs": [
        {
          "internalType": "string",
          "name": "",
          "type": "string"
        }
      ],
      "stateMutability": "view",
      "type": "function"
    },
    {
      "inputs": [
        {
          "internalType": "uint256",
          "name": "_age",
          "type": "uint256"
        },
        {
          "internalType": "string",
          "name": "_name",
          "type": "string"
        }
      ],
      "name": "set",
      "outputs": [],
      "stateMutability": "nonpayable",
      "type": "function"
    }
  ],
  "bytecode": "0x608060405234801561001057600080fd5b506109b2806100206000396000f3fe608060405234801561001057600080fd5b506004361061004c5760003560e01c806306fdde0314610051578063262a9dff1461006f578063643719771461008d5780636d4ce63c146100a9575b600080fd5b6100596100c8565b60405161006691906103d3565b60405180910390f35b610077610156565b604051610084919061040e565b60405180910390f35b6100a760048036038101906100a2919061059e565b61015c565b005b6100b16101b7565b6040516100bf9291906105fa565b60405180910390f35b600180546100d590610659565b80601f016020809104026020016040519081016040528092919081815260200182805461010190610659565b801561014e5780601f106101235761010080835404028352916020019161014e565b820191906000526020600020905b81548152906001019060200180831161013157829003601f168201915b505050505081565b60005481565b8160008190555080600190816101729190610836565b506101b36040518060400160405280601081526020017f7365742061676520616e64206e616d65000000000000000000000000000000008152508383610254565b5050565b6000606060005460018080546101cc90610659565b80601f01602080910402602001604051908101604052809291908181526020018280546101f890610659565b80156102455780601f1061021a57610100808354040283529160200191610245565b820191906000526020600020905b81548152906001019060200180831161022857829003601f168201915b50505050509050915091509091565b6102ee83838360405160240161026c93929190610908565b6040516020818303038152906040527f5970e089000000000000000000000000000000000000000000000000000000007bffffffffffffffffffffffffffffffffffffffffffffffffffffffff19166020820180517bffffffffffffffffffffffffffffffffffffffffffffffffffffffff83818316178352505050506102f3565b505050565b61030a8161030261030d61032e565b63ffffffff16565b50565b60006a636f6e736f6c652e6c6f679050600080835160208501845afa505050565b610339819050919050565b61034161094d565b565b600081519050919050565b600082825260208201905092915050565b60005b8381101561037d578082015181840152602081019050610362565b60008484015250505050565b6000601f19601f8301169050919050565b60006103a582610343565b6103af818561034e565b93506103bf81856020860161035f565b6103c881610389565b840191505092915050565b600060208201905081810360008301526103ed818461039a565b905092915050565b6000819050919050565b610408816103f5565b82525050565b600060208201905061042360008301846103ff565b92915050565b6000604051905090565b600080fd5b600080fd5b610446816103f5565b811461045157600080fd5b50565b6000813590506104638161043d565b92915050565b600080fd5b600080fd5b7f4e487b7100000000000000000000000000000000000000000000000000000000600052604160045260246000fd5b6104ab82610389565b810181811067ffffffffffffffff821117156104ca576104c9610473565b5b80604052505050565b60006104dd610429565b90506104e982826104a2565b919050565b600067ffffffffffffffff82111561050957610508610473565b5b61051282610389565b9050602081019050919050565b82818337600083830152505050565b600061054161053c846104ee565b6104d3565b90508281526020810184848401111561055d5761055c61046e565b5b61056884828561051f565b509392505050565b600082601f83011261058557610584610469565b5b813561059584826020860161052e565b91505092915050565b600080604083850312156105b5576105b4610433565b5b60006105c385828601610454565b925050602083013567ffffffffffffffff8111156105e4576105e3610438565b5b6105f085828601610570565b9150509250929050565b600060408201905061060f60008301856103ff565b8181036020830152610621818461039a565b90509392505050565b7f4e487b7100000000000000000000000000000000000000000000000000000000600052602260045260246000fd5b6000600282049050600182168061067157607f821691505b6020821081036106845761068361062a565b5b50919050565b60008190508160005260206000209050919050565b60006020601f8301049050919050565b600082821b905092915050565b6000600883026106ec7fffffffffffffffffffffffffffffffffffffffffffffffffffffffffffffffff826106af565b6106f686836106af565b95508019841693508086168417925050509392505050565b6000819050919050565b600061073361072e610729846103f5565b61070e565b6103f5565b9050919050565b6000819050919050565b61074d83610718565b6107616107598261073a565b8484546106bc565b825550505050565b600090565b610776610769565b610781818484610744565b505050565b5b818110156107a55761079a60008261076e565b600181019050610787565b5050565b601f8211156107ea576107bb8161068a565b6107c48461069f565b810160208510156107d3578190505b6107e76107df8561069f565b830182610786565b50505b505050565b600082821c905092915050565b600061080d600019846008026107ef565b1980831691505092915050565b600061082683836107fc565b9150826002028217905092915050565b61083f82610343565b67ffffffffffffffff81111561085857610857610473565b5b6108628254610659565b61086d8282856107a9565b600060209050601f8311600181146108a0576000841561088e578287015190505b610898858261081a565b865550610900565b601f1984166108ae8661068a565b60005b828110156108d6578489015182556001820191506020850194506020810190506108b1565b868310156108f357848901516108ef601f8916826107fc565b8355505b6001600288020188555050505b505050505050565b60006060820190508181036000830152610922818661039a565b905061093160208301856103ff565b8181036040830152610943818461039a565b9050949350505050565b7f4e487b7100000000000000000000000000000000000000000000000000000000600052605160045260246000fdfea264697066735822122048475184b9c0f8179f2d9d2bf99cb5bb390a942f9ab5fef6aefb5e3ce35ff14364736f6c63430008180033",
  "linkReferences": {},
  "deployedLinkReferences": {}
}